{
  "_format": "hh-sol-artifact-1",
  "contractName": "AnimeFaceNFT",
  "sourceName": "contracts/AnimeFaceNFT.sol",
  "abi": [
    {
      "inputs": [],
      "stateMutability": "nonpayable",
      "type": "constructor"
    },
    {
      "anonymous": false,
      "inputs": [
        {
          "indexed": true,
          "internalType": "address",
          "name": "owner",
          "type": "address"
        },
        {
          "indexed": true,
          "internalType": "address",
          "name": "approved",
          "type": "address"
        },
        {
          "indexed": true,
          "internalType": "uint256",
          "name": "tokenId",
          "type": "uint256"
        }
      ],
      "name": "Approval",
      "type": "event"
    },
    {
      "anonymous": false,
      "inputs": [
        {
          "indexed": true,
          "internalType": "address",
          "name": "owner",
          "type": "address"
        },
        {
          "indexed": true,
          "internalType": "address",
          "name": "operator",
          "type": "address"
        },
        {
          "indexed": false,
          "internalType": "bool",
          "name": "approved",
          "type": "bool"
        }
      ],
      "name": "ApprovalForAll",
      "type": "event"
    },
    {
      "anonymous": false,
      "inputs": [
        {
          "indexed": true,
          "internalType": "address",
          "name": "previousOwner",
          "type": "address"
        },
        {
          "indexed": true,
          "internalType": "address",
          "name": "newOwner",
          "type": "address"
        }
      ],
      "name": "OwnershipTransferred",
      "type": "event"
    },
    {
      "anonymous": false,
      "inputs": [
        {
          "indexed": true,
          "internalType": "address",
          "name": "from",
          "type": "address"
        },
        {
          "indexed": true,
          "internalType": "address",
          "name": "to",
          "type": "address"
        },
        {
          "indexed": true,
          "internalType": "uint256",
          "name": "tokenId",
          "type": "uint256"
        }
      ],
      "name": "Transfer",
      "type": "event"
    },
    {
      "inputs": [
        {
          "internalType": "address",
          "name": "to",
          "type": "address"
        },
        {
          "internalType": "uint256",
          "name": "tokenId",
          "type": "uint256"
        }
      ],
      "name": "approve",
      "outputs": [],
      "stateMutability": "nonpayable",
      "type": "function"
    },
    {
      "inputs": [
        {
          "internalType": "address",
          "name": "owner",
          "type": "address"
        }
      ],
      "name": "balanceOf",
      "outputs": [
        {
          "internalType": "uint256",
          "name": "",
          "type": "uint256"
        }
      ],
      "stateMutability": "view",
      "type": "function"
    },
    {
      "inputs": [
        {
          "internalType": "uint256",
          "name": "tokenId",
          "type": "uint256"
        }
      ],
      "name": "burnNFT",
      "outputs": [],
      "stateMutability": "nonpayable",
      "type": "function"
    },
    {
      "inputs": [
        {
          "internalType": "uint256",
          "name": "tokenId",
          "type": "uint256"
        }
      ],
      "name": "getApproved",
      "outputs": [
        {
          "internalType": "address",
          "name": "",
          "type": "address"
        }
      ],
      "stateMutability": "view",
      "type": "function"
    },
    {
      "inputs": [
        {
          "internalType": "address",
          "name": "_owner",
          "type": "address"
        },
        {
          "internalType": "address",
          "name": "_operator",
          "type": "address"
        }
      ],
      "name": "isApprovedForAll",
      "outputs": [
        {
          "internalType": "bool",
          "name": "isOperator",
          "type": "bool"
        }
      ],
      "stateMutability": "view",
      "type": "function"
    },
    {
      "inputs": [
        {
          "internalType": "address",
          "name": "recipient",
          "type": "address"
        },
        {
          "internalType": "string",
          "name": "ipfsHash",
          "type": "string"
        }
      ],
      "name": "mintNFT",
      "outputs": [
        {
          "internalType": "uint256",
          "name": "",
          "type": "uint256"
        }
      ],
      "stateMutability": "nonpayable",
      "type": "function"
    },
    {
      "inputs": [],
      "name": "name",
      "outputs": [
        {
          "internalType": "string",
          "name": "",
          "type": "string"
        }
      ],
      "stateMutability": "view",
      "type": "function"
    },
    {
      "inputs": [],
      "name": "ownedTokens",
      "outputs": [
        {
          "internalType": "string[]",
          "name": "",
          "type": "string[]"
        }
      ],
      "stateMutability": "view",
      "type": "function"
    },
    {
      "inputs": [],
      "name": "owner",
      "outputs": [
        {
          "internalType": "address",
          "name": "",
          "type": "address"
        }
      ],
      "stateMutability": "view",
      "type": "function"
    },
    {
      "inputs": [
        {
          "internalType": "uint256",
          "name": "tokenId",
          "type": "uint256"
        }
      ],
      "name": "ownerOf",
      "outputs": [
        {
          "internalType": "address",
          "name": "",
          "type": "address"
        }
      ],
      "stateMutability": "view",
      "type": "function"
    },
    {
      "inputs": [],
      "name": "renounceOwnership",
      "outputs": [],
      "stateMutability": "nonpayable",
      "type": "function"
    },
    {
      "inputs": [
        {
          "internalType": "address",
          "name": "from",
          "type": "address"
        },
        {
          "internalType": "address",
          "name": "to",
          "type": "address"
        },
        {
          "internalType": "uint256",
          "name": "tokenId",
          "type": "uint256"
        }
      ],
      "name": "safeTransferFrom",
      "outputs": [],
      "stateMutability": "nonpayable",
      "type": "function"
    },
    {
      "inputs": [
        {
          "internalType": "address",
          "name": "from",
          "type": "address"
        },
        {
          "internalType": "address",
          "name": "to",
          "type": "address"
        },
        {
          "internalType": "uint256",
          "name": "tokenId",
          "type": "uint256"
        },
        {
          "internalType": "bytes",
          "name": "_data",
          "type": "bytes"
        }
      ],
      "name": "safeTransferFrom",
      "outputs": [],
      "stateMutability": "nonpayable",
      "type": "function"
    },
    {
      "inputs": [
        {
          "internalType": "address",
          "name": "operator",
          "type": "address"
        },
        {
          "internalType": "bool",
          "name": "approved",
          "type": "bool"
        }
      ],
      "name": "setApprovalForAll",
      "outputs": [],
      "stateMutability": "nonpayable",
      "type": "function"
    },
    {
      "inputs": [
        {
          "internalType": "bytes4",
          "name": "interfaceId",
          "type": "bytes4"
        }
      ],
      "name": "supportsInterface",
      "outputs": [
        {
          "internalType": "bool",
          "name": "",
          "type": "bool"
        }
      ],
      "stateMutability": "view",
      "type": "function"
    },
    {
      "inputs": [],
      "name": "symbol",
      "outputs": [
        {
          "internalType": "string",
          "name": "",
          "type": "string"
        }
      ],
      "stateMutability": "view",
      "type": "function"
    },
    {
      "inputs": [
        {
          "internalType": "uint256",
          "name": "tokenId",
          "type": "uint256"
        }
      ],
      "name": "tokenURI",
      "outputs": [
        {
          "internalType": "string",
          "name": "",
          "type": "string"
        }
      ],
      "stateMutability": "view",
      "type": "function"
    },
    {
      "inputs": [
        {
          "internalType": "address",
          "name": "from",
          "type": "address"
        },
        {
          "internalType": "address",
          "name": "to",
          "type": "address"
        },
        {
          "internalType": "uint256",
          "name": "tokenId",
          "type": "uint256"
        }
      ],
      "name": "transferFrom",
      "outputs": [],
      "stateMutability": "nonpayable",
      "type": "function"
    },
    {
      "inputs": [
        {
          "internalType": "address",
          "name": "newOwner",
          "type": "address"
        }
      ],
      "name": "transferOwnership",
      "outputs": [],
      "stateMutability": "nonpayable",
      "type": "function"
    }
  ],
  "bytecode": "0x60806040523480156200001157600080fd5b50604080518082018252600c81526b105b9a5b59519858d953919560a21b60208083019182528351808501909452600384526220a32760e91b9084015281519192916200006191600091620000f0565b50805162000077906001906020840190620000f0565b505050620000946200008e6200009a60201b60201c565b6200009e565b620001d2565b3390565b600780546001600160a01b038381166001600160a01b0319831681179093556040519116919082907f8be0079c531659141344cd1fd0a4f28419497f9722a3daafe3b4186f6b6457e090600090a35050565b828054620000fe9062000196565b90600052602060002090601f0160209004810192826200012257600085556200016d565b82601f106200013d57805160ff19168380011785556200016d565b828001600101855582156200016d579182015b828111156200016d57825182559160200191906001019062000150565b506200017b9291506200017f565b5090565b5b808211156200017b576000815560010162000180565b600181811c90821680620001ab57607f821691505b602082108103620001cc57634e487b7160e01b600052602260045260246000fd5b50919050565b611b9380620001e26000396000f3fe608060405234801561001057600080fd5b50600436106101215760003560e01c806370a08231116100ad578063b88d4fde11610071578063b88d4fde14610259578063c87b56dd1461026c578063e985e9c51461027f578063eacabe1414610292578063f2fde38b146102a557600080fd5b806370a0823114610204578063715018a6146102255780638da5cb5b1461022d57806395d89b411461023e578063a22cb4651461024657600080fd5b806319cba6b4116100f457806319cba6b4146101a357806323b872dd146101b85780632890e0d7146101cb57806342842e0e146101de5780636352211e146101f157600080fd5b806301ffc9a71461012657806306fdde031461014e578063081812fc14610163578063095ea7b31461018e575b600080fd5b610139610134366004611575565b6102b8565b60405190151581526020015b60405180910390f35b61015661030a565b60405161014591906115ea565b6101766101713660046115fd565b61039c565b6040516001600160a01b039091168152602001610145565b6101a161019c366004611632565b610429565b005b6101ab61053e565b604051610145919061165c565b6101a16101c63660046116be565b610625565b6101a16101d93660046115fd565b610656565b6101a16101ec3660046116be565b610662565b6101766101ff3660046115fd565b61067d565b6102176102123660046116fa565b6106f4565b604051908152602001610145565b6101a161077b565b6007546001600160a01b0316610176565b6101566107b1565b6101a1610254366004611715565b6107c0565b6101a16102673660046117dd565b6107cf565b61015661027a3660046115fd565b610807565b61013961028d366004611859565b610970565b6102176102a036600461188c565b6109d0565b6101a16102b33660046116fa565b610a2c565b60006001600160e01b031982166380ac58cd60e01b14806102e957506001600160e01b03198216635b5e139f60e01b145b8061030457506301ffc9a760e01b6001600160e01b03198316145b92915050565b606060008054610319906118ee565b80601f0160208091040260200160405190810160405280929190818152602001828054610345906118ee565b80156103925780601f1061036757610100808354040283529160200191610392565b820191906000526020600020905b81548152906001019060200180831161037557829003601f168201915b5050505050905090565b60006103a782610ac4565b61040d5760405162461bcd60e51b815260206004820152602c60248201527f4552433732313a20617070726f76656420717565727920666f72206e6f6e657860448201526b34b9ba32b73a103a37b5b2b760a11b60648201526084015b60405180910390fd5b506000908152600460205260409020546001600160a01b031690565b60006104348261067d565b9050806001600160a01b0316836001600160a01b0316036104a15760405162461bcd60e51b815260206004820152602160248201527f4552433732313a20617070726f76616c20746f2063757272656e74206f776e656044820152603960f91b6064820152608401610404565b336001600160a01b03821614806104bd57506104bd8133610970565b61052f5760405162461bcd60e51b815260206004820152603860248201527f4552433732313a20617070726f76652063616c6c6572206973206e6f74206f7760448201527f6e6572206e6f7220617070726f76656420666f7220616c6c00000000000000006064820152608401610404565b6105398383610ae1565b505050565b6007546060906001600160a01b0316331461056b5760405162461bcd60e51b815260040161040490611928565b600061057660085490565b905060008167ffffffffffffffff81111561059357610593611751565b6040519080825280602002602001820160405280156105c657816020015b60608152602001906001900390816105b15790505b509050600060015b83811161061c576105de81610807565b8383815181106105f0576105f061195d565b6020026020010181905250818061060690611989565b925050808061061490611989565b9150506105ce565b50909250505090565b61062f3382610b4f565b61064b5760405162461bcd60e51b8152600401610404906119a2565b610539838383610c18565b61065f81610db4565b50565b610539838383604051806020016040528060008152506107cf565b6000818152600260205260408120546001600160a01b0316806103045760405162461bcd60e51b815260206004820152602960248201527f4552433732313a206f776e657220717565727920666f72206e6f6e657869737460448201526832b73a103a37b5b2b760b91b6064820152608401610404565b60006001600160a01b03821661075f5760405162461bcd60e51b815260206004820152602a60248201527f4552433732313a2062616c616e636520717565727920666f7220746865207a65604482015269726f206164647265737360b01b6064820152608401610404565b506001600160a01b031660009081526003602052604090205490565b6007546001600160a01b031633146107a55760405162461bcd60e51b815260040161040490611928565b6107af6000610df4565b565b606060018054610319906118ee565b6107cb338383610e46565b5050565b6107d93383610b4f565b6107f55760405162461bcd60e51b8152600401610404906119a2565b61080184848484610f14565b50505050565b606061081282610ac4565b6108785760405162461bcd60e51b815260206004820152603160248201527f45524337323155524953746f726167653a2055524920717565727920666f72206044820152703737b732bc34b9ba32b73a103a37b5b2b760791b6064820152608401610404565b60008281526006602052604081208054610891906118ee565b80601f01602080910402602001604051908101604052809291908181526020018280546108bd906118ee565b801561090a5780601f106108df5761010080835404028352916020019161090a565b820191906000526020600020905b8154815290600101906020018083116108ed57829003601f168201915b50505050509050600061091b610f47565b9050805160000361092d575092915050565b81511561095f5780826040516020016109479291906119f3565b60405160208183030381529060405292505050919050565b61096884610f67565b949350505050565b60007358807bad0b376efc12f5ad86aac70e78ed67dead196001600160a01b0383160161099f57506001610304565b6001600160a01b0380841660009081526005602090815260408083209386168352929052205460ff165b9392505050565b6007546000906001600160a01b031633146109fd5760405162461bcd60e51b815260040161040490611928565b610a0b600880546001019055565b6000610a1660085490565b9050610a228482611031565b6109c98184611164565b6007546001600160a01b03163314610a565760405162461bcd60e51b815260040161040490611928565b6001600160a01b038116610abb5760405162461bcd60e51b815260206004820152602660248201527f4f776e61626c653a206e6577206f776e657220697320746865207a65726f206160448201526564647265737360d01b6064820152608401610404565b61065f81610df4565b6000908152600260205260409020546001600160a01b0316151590565b600081815260046020526040902080546001600160a01b0319166001600160a01b0384169081179091558190610b168261067d565b6001600160a01b03167f8c5be1e5ebec7d5bd14f71427d1e84f3dd0314c0f7b2291e5b200ac8c7c3b92560405160405180910390a45050565b6000610b5a82610ac4565b610bbb5760405162461bcd60e51b815260206004820152602c60248201527f4552433732313a206f70657261746f7220717565727920666f72206e6f6e657860448201526b34b9ba32b73a103a37b5b2b760a11b6064820152608401610404565b6000610bc68361067d565b9050806001600160a01b0316846001600160a01b03161480610bed5750610bed8185610970565b806109685750836001600160a01b0316610c068461039c565b6001600160a01b031614949350505050565b826001600160a01b0316610c2b8261067d565b6001600160a01b031614610c8f5760405162461bcd60e51b815260206004820152602560248201527f4552433732313a207472616e736665722066726f6d20696e636f72726563742060448201526437bbb732b960d91b6064820152608401610404565b6001600160a01b038216610cf15760405162461bcd60e51b8152602060048201526024808201527f4552433732313a207472616e7366657220746f20746865207a65726f206164646044820152637265737360e01b6064820152608401610404565b610cfc600082610ae1565b6001600160a01b0383166000908152600360205260408120805460019290610d25908490611a22565b90915550506001600160a01b0382166000908152600360205260408120805460019290610d53908490611a39565b909155505060008181526002602052604080822080546001600160a01b0319166001600160a01b0386811691821790925591518493918716917fddf252ad1be2c89b69c2b068fc378daa952ba7f163c4a11628f55a4df523b3ef91a4505050565b610dbd816111ef565b60008181526006602052604090208054610dd6906118ee565b15905061065f57600081815260066020526040812061065f9161148c565b600780546001600160a01b038381166001600160a01b0319831681179093556040519116919082907f8be0079c531659141344cd1fd0a4f28419497f9722a3daafe3b4186f6b6457e090600090a35050565b816001600160a01b0316836001600160a01b031603610ea75760405162461bcd60e51b815260206004820152601960248201527f4552433732313a20617070726f766520746f2063616c6c6572000000000000006044820152606401610404565b6001600160a01b03838116600081815260056020908152604080832094871680845294825291829020805460ff191686151590811790915591519182527f17307eab39ab6107e8899845ad3d59bd9653f200f220920489ca2b5937696c31910160405180910390a3505050565b610f1f848484610c18565b610f2b8484848461128a565b6108015760405162461bcd60e51b815260040161040490611a51565b6060604051806060016040528060228152602001611b3c60229139905090565b6060610f7282610ac4565b610fd65760405162461bcd60e51b815260206004820152602f60248201527f4552433732314d657461646174613a2055524920717565727920666f72206e6f60448201526e3732bc34b9ba32b73a103a37b5b2b760891b6064820152608401610404565b6000610fe0610f47565b9050600081511161100057604051806020016040528060008152506109c9565b8061100a8461138b565b60405160200161101b9291906119f3565b6040516020818303038152906040529392505050565b6001600160a01b0382166110875760405162461bcd60e51b815260206004820181905260248201527f4552433732313a206d696e7420746f20746865207a65726f20616464726573736044820152606401610404565b61109081610ac4565b156110dd5760405162461bcd60e51b815260206004820152601c60248201527f4552433732313a20746f6b656e20616c7265616479206d696e746564000000006044820152606401610404565b6001600160a01b0382166000908152600360205260408120805460019290611106908490611a39565b909155505060008181526002602052604080822080546001600160a01b0319166001600160a01b03861690811790915590518392907fddf252ad1be2c89b69c2b068fc378daa952ba7f163c4a11628f55a4df523b3ef908290a45050565b61116d82610ac4565b6111d05760405162461bcd60e51b815260206004820152602e60248201527f45524337323155524953746f726167653a2055524920736574206f66206e6f6e60448201526d32bc34b9ba32b73a103a37b5b2b760911b6064820152608401610404565b60008281526006602090815260409091208251610539928401906114c6565b60006111fa8261067d565b9050611207600083610ae1565b6001600160a01b0381166000908152600360205260408120805460019290611230908490611a22565b909155505060008281526002602052604080822080546001600160a01b0319169055518391906001600160a01b038416907fddf252ad1be2c89b69c2b068fc378daa952ba7f163c4a11628f55a4df523b3ef908390a45050565b60006001600160a01b0384163b1561138057604051630a85bd0160e11b81526001600160a01b0385169063150b7a02906112ce903390899088908890600401611aa3565b6020604051808303816000875af1925050508015611309575060408051601f3d908101601f1916820190925261130691810190611ae0565b60015b611366573d808015611337576040519150601f19603f3d011682016040523d82523d6000602084013e61133c565b606091505b50805160000361135e5760405162461bcd60e51b815260040161040490611a51565b805181602001fd5b6001600160e01b031916630a85bd0160e11b149050610968565b506001949350505050565b6060816000036113b25750506040805180820190915260018152600360fc1b602082015290565b8160005b81156113dc57806113c681611989565b91506113d59050600a83611b13565b91506113b6565b60008167ffffffffffffffff8111156113f7576113f7611751565b6040519080825280601f01601f191660200182016040528015611421576020820181803683370190505b5090505b841561096857611436600183611a22565b9150611443600a86611b27565b61144e906030611a39565b60f81b8183815181106114635761146361195d565b60200101906001600160f81b031916908160001a905350611485600a86611b13565b9450611425565b508054611498906118ee565b6000825580601f106114a8575050565b601f01602090049060005260206000209081019061065f919061154a565b8280546114d2906118ee565b90600052602060002090601f0160209004810192826114f4576000855561153a565b82601f1061150d57805160ff191683800117855561153a565b8280016001018555821561153a579182015b8281111561153a57825182559160200191906001019061151f565b5061154692915061154a565b5090565b5b80821115611546576000815560010161154b565b6001600160e01b03198116811461065f57600080fd5b60006020828403121561158757600080fd5b81356109c98161155f565b60005b838110156115ad578181015183820152602001611595565b838111156108015750506000910152565b600081518084526115d6816020860160208601611592565b601f01601f19169290920160200192915050565b6020815260006109c960208301846115be565b60006020828403121561160f57600080fd5b5035919050565b80356001600160a01b038116811461162d57600080fd5b919050565b6000806040838503121561164557600080fd5b61164e83611616565b946020939093013593505050565b6000602080830181845280855180835260408601915060408160051b870101925083870160005b828110156116b157603f1988860301845261169f8583516115be565b94509285019290850190600101611683565b5092979650505050505050565b6000806000606084860312156116d357600080fd5b6116dc84611616565b92506116ea60208501611616565b9150604084013590509250925092565b60006020828403121561170c57600080fd5b6109c982611616565b6000806040838503121561172857600080fd5b61173183611616565b91506020830135801515811461174657600080fd5b809150509250929050565b634e487b7160e01b600052604160045260246000fd5b600067ffffffffffffffff8084111561178257611782611751565b604051601f8501601f19908116603f011681019082821181831017156117aa576117aa611751565b816040528093508581528686860111156117c357600080fd5b858560208301376000602087830101525050509392505050565b600080600080608085870312156117f357600080fd5b6117fc85611616565b935061180a60208601611616565b925060408501359150606085013567ffffffffffffffff81111561182d57600080fd5b8501601f8101871361183e57600080fd5b61184d87823560208401611767565b91505092959194509250565b6000806040838503121561186c57600080fd5b61187583611616565b915061188360208401611616565b90509250929050565b6000806040838503121561189f57600080fd5b6118a883611616565b9150602083013567ffffffffffffffff8111156118c457600080fd5b8301601f810185136118d557600080fd5b6118e485823560208401611767565b9150509250929050565b600181811c9082168061190257607f821691505b60208210810361192257634e487b7160e01b600052602260045260246000fd5b50919050565b6020808252818101527f4f776e61626c653a2063616c6c6572206973206e6f7420746865206f776e6572604082015260600190565b634e487b7160e01b600052603260045260246000fd5b634e487b7160e01b600052601160045260246000fd5b60006001820161199b5761199b611973565b5060010190565b60208082526031908201527f4552433732313a207472616e736665722063616c6c6572206973206e6f74206f6040820152701ddb995c881b9bdc88185c1c1c9bdd9959607a1b606082015260800190565b60008351611a05818460208801611592565b835190830190611a19818360208801611592565b01949350505050565b600082821015611a3457611a34611973565b500390565b60008219821115611a4c57611a4c611973565b500190565b60208082526032908201527f4552433732313a207472616e7366657220746f206e6f6e20455243373231526560408201527131b2b4bb32b91034b6b83632b6b2b73a32b960711b606082015260800190565b6001600160a01b0385811682528416602082015260408101839052608060608201819052600090611ad6908301846115be565b9695505050505050565b600060208284031215611af257600080fd5b81516109c98161155f565b634e487b7160e01b600052601260045260246000fd5b600082611b2257611b22611afd565b500490565b600082611b3657611b36611afd565b50069056fe68747470733a2f2f676174657761792e70696e6174612e636c6f75642f697066732fa26469706673582212208918a682ef94f11ac795c5bce5b496935eba45d6827bcae81a6e5285ee20aa4064736f6c634300080d0033",
  "linkReferences": {},
  "deployedLinkReferences": {}
}